{
  "contractName": "DiscussionApp",
  "abi": [
    {
      "constant": true,
      "inputs": [],
      "name": "DISCUSSION_MANAGER_ROLE",
      "outputs": [
        {
          "name": "",
          "type": "bytes32"
        }
      ],
      "payable": false,
      "stateMutability": "view",
      "type": "function"
    },
    {
      "inputs": [],
      "payable": false,
      "stateMutability": "nonpayable",
      "type": "constructor"
    },
    {
      "constant": false,
      "inputs": [
        {
          "name": "_title",
          "type": "string"
        }
      ],
      "name": "createDiscussion",
      "outputs": [],
      "payable": false,
      "stateMutability": "nonpayable",
      "type": "function"
    },
    {
      "constant": true,
      "inputs": [],
      "name": "getDiscussionsCount",
      "outputs": [
        {
          "name": "",
          "type": "uint256"
        }
      ],
      "payable": false,
      "stateMutability": "view",
      "type": "function"
    },
    {
      "constant": true,
      "inputs": [
        {
          "name": "index",
          "type": "uint256"
        }
      ],
      "name": "getDiscussion",
      "outputs": [
        {
          "name": "startTime",
          "type": "uint256"
        },
        {
          "name": "author",
          "type": "address"
        },
        {
          "name": "title",
          "type": "string"
        },
        {
          "name": "isOpened",
          "type": "bool"
        }
      ],
      "payable": false,
      "stateMutability": "view",
      "type": "function"
    },
    {
      "constant": false,
      "inputs": [
        {
          "name": "_discussionId",
          "type": "uint256"
        }
      ],
      "name": "addMessage",
      "outputs": [
        {
          "name": "",
          "type": "uint256"
        }
      ],
      "payable": false,
      "stateMutability": "nonpayable",
      "type": "function"
    },
    {
      "constant": true,
      "inputs": [
        {
          "name": "_discussionId",
          "type": "uint256"
        }
      ],
      "name": "getMessgesCount",
      "outputs": [
        {
          "name": "",
          "type": "uint256"
        }
      ],
      "payable": false,
      "stateMutability": "view",
      "type": "function"
    },
    {
      "constant": true,
      "inputs": [
        {
          "name": "_discussionId",
          "type": "uint256"
        },
        {
          "name": "_messageId",
          "type": "uint256"
        }
      ],
      "name": "getMessage",
      "outputs": [
        {
          "name": "author",
          "type": "address"
        },
        {
          "name": "timestamp",
          "type": "uint256"
        }
      ],
      "payable": false,
      "stateMutability": "view",
      "type": "function"
    }
  ],
  "bytecode": "0x608060405234801561001057600080fd5b506108ce806100206000396000f3006080604052600436106100825763ffffffff7c01000000000000000000000000000000000000000000000000000000006000350416630d7027dc81146100875780633a6ca23c1461015c5780635c16898b1461018357806386c44efb1461019857806392813fd6146101b05780639462c7db1461020b578063da0632ad14610223575b600080fd5b34801561009357600080fd5b5061009f60043561026e565b604051808581526020018473ffffffffffffffffffffffffffffffffffffffff1673ffffffffffffffffffffffffffffffffffffffff1681526020018060200183151515158152602001828103825284818151815260200191508051906020019080838360005b8381101561011e578181015183820152602001610106565b50505050905090810190601f16801561014b5780820380516001836020036101000a031916815260200191505b509550505050505060405180910390f35b34801561016857600080fd5b506101716103de565b60408051918252519081900360200190f35b34801561018f57600080fd5b506101716103e5565b3480156101a457600080fd5b506101716004356104a2565b3480156101bc57600080fd5b506040805160206004803580820135601f81018490048402850184019095528484526102099436949293602493928401919081908401838280828437509497506105c69650505050505050565b005b34801561021757600080fd5b5061017160043561072c565b34801561022f57600080fd5b5061023e60043560243561073e565b6040805173ffffffffffffffffffffffffffffffffffffffff909316835260208301919091528051918290030190f35b6000806060600061027d6107cb565b600080548790811061028b57fe5b600091825260209182902060408051608081018252600393909302909101805473ffffffffffffffffffffffffffffffffffffffff8116845274010000000000000000000000000000000000000000900467ffffffffffffffff1683850152600180820180548451600261010094831615949094027fffffffffffffffffffffffffffffffffffffffffffffffffffffffffffffffff0190911692909204601f81018790048702830187018552808352949592949386019391929091908301828280156103995780601f1061036e57610100808354040283529160200191610399565b820191906000526020600020905b81548152906001019060200180831161037c57829003601f168201915b50505091835250506002919091015460ff1615156020918201528101518151604083015160609093015167ffffffffffffffff90921699909850919650945092505050565b6000545b90565b60405160200180807f44495343555353494f4e5f4d414e414745525f524f4c4500000000000000000081525060170190506040516020818303038152906040526040518082805190602001908083835b6020831061047257805182527fffffffffffffffffffffffffffffffffffffffffffffffffffffffffffffffe09092019160209182019101610435565b6001836020036101000a038019825116818451168082178552505050505050905001915050604051809103902081565b600080828154811015156104b257fe5b600091825260209091206002600390920201015460ff1615156104d457600080fd5b50600081815260016020818152604080842081518083019092523382524267ffffffffffffffff9081168385019081528254808701845583885285882094519401805491517fffffffffffffffffffffffff000000000000000000000000000000000000000090921673ffffffffffffffffffffffffffffffffffffffff909516949094177fffffffff0000000000000000ffffffffffffffffffffffffffffffffffffffff1674010000000000000000000000000000000000000000919092160217909155939092529052547fffffffffffffffffffffffffffffffffffffffffffffffffffffffffffffffff0190565b6040805160808101825233815267ffffffffffffffff428116602080840191825293830185815260016060850181905260008054918201808255908052855160039092027f290decd9548b62a8d60345a988386fc84ba6bc95484008f6362f93160ef3e56381018054955190961674010000000000000000000000000000000000000000027fffffffff0000000000000000ffffffffffffffffffffffffffffffffffffffff73ffffffffffffffffffffffffffffffffffffffff949094167fffffffffffffffffffffffff000000000000000000000000000000000000000090961695909517929092169390931784559051805192956106ee937f290decd9548b62a8d60345a988386fc84ba6bc95484008f6362f93160ef3e564909301929101906107f3565b5060609190910151600290910180547fffffffffffffffffffffffffffffffffffffffffffffffffffffffffffffff00169115159190911790555050565b60009081526001602052604090205490565b600080610749610871565b600085815260016020526040902080548590811061076357fe5b60009182526020918290206040805180820190915291015473ffffffffffffffffffffffffffffffffffffffff81168083527401000000000000000000000000000000000000000090910467ffffffffffffffff169190920181905290969095509350505050565b6040805160808101825260008082526020820181905260609282018390529181019190915290565b828054600181600116156101000203166002900490600052602060002090601f016020900481019282601f1061083457805160ff1916838001178555610861565b82800160010185558215610861579182015b82811115610861578251825591602001919060010190610846565b5061086d929150610888565b5090565b604080518082019091526000808252602082015290565b6103e291905b8082111561086d576000815560010161088e5600a165627a7a723058206633c548afb77839a59cb5bffce5b1c8c05963a6cf5765ca5f34417d38eab33e0029",
  "source": "pragma solidity ^0.4.24;\n\n//import \"@aragon/os/contracts/apps/AragonApp.sol\";\n//import \"openzeppelin-solidity/contracts/math/Math.sol\";\n\n\ncontract DiscussionApp /*is AragonApp*/ {\n\n  bytes32 constant public DISCUSSION_MANAGER_ROLE = keccak256(abi.encodePacked(\"DISCUSSION_MANAGER_ROLE\"));\n\n  struct Discussion {\n    address author;\n    uint64 startTime;\n    string title;\n\n    bool isOpened;\n\n  }\n\n  struct Message {\n    address author;\n    uint64 timestamp;\n  }\n\n\n  Discussion[] private discussions;\n  mapping ( uint256 => Message[] ) messages; // discussionId => Message\n\n\n  constructor() public {\n\n  }\n \n  function createDiscussion(string _title) \n    public \n    //auth(DISCUSSION_MANAGER_ROLE)\n  {\n    discussions.push(Discussion({\n      startTime: uint64(now),\n      author: msg.sender,\n      title: _title,\n      isOpened: true\n    }));\n\n  }\n  \n  function getDiscussionsCount() public view returns (uint256) {\n    return discussions.length;\n  }\n\n\n  function getDiscussion(uint256 index) public view returns (uint256 startTime, address author, string title, bool isOpened) {\n    Discussion memory disc = discussions[index];\n\n    startTime = disc.startTime;\n    author = disc.author;\n    title = disc.title;\n    isOpened = disc.isOpened;\n\n  }\n\n\n\n  /**\n   * Messages\n   */\n\n  function addMessage(uint256 _discussionId) \n    public\n    returns (uint256)\n  {\n    require(discussions[_discussionId].isOpened);\n\n    messages[_discussionId].push(Message({\n      author: msg.sender,\n      timestamp: uint64(now)\n    }));\n\n    return messages[_discussionId].length - 1;\n  }   \n\n\n  function getMessgesCount(uint256 _discussionId) public view returns (uint256) {\n    return messages[_discussionId].length;\n  }\n\n\n  function getMessage(uint256 _discussionId, uint256 _messageId) \n    public \n    view \n    returns ( address author, uint256 timestamp) \n  {\n\n    Message memory message = messages[_discussionId][_messageId];\n\n    author = message.author;\n    timestamp = message.timestamp;\n\n  }\n\n\n}\n",
  "sourcePath": "/home/mathew/workspace/datastore/communication-poc/app/frontend/contracts/DiscussionApp.sol",
  "compiler": {
    "name": "solc",
    "version": "0.4.24+commit.e67f0147.Emscripten.clang"
  },
  "schemaVersion": "2.0.0",
  "updatedAt": "2019-01-09T07:04:15.640Z"
}