{
  "contractName": "DiscussionApp",
  "abi": [
    {
      "constant": true,
      "inputs": [],
      "name": "DISCUSSION_MANAGER_ROLE",
      "outputs": [
        {
          "name": "",
          "type": "bytes32"
        }
      ],
      "payable": false,
      "stateMutability": "view",
      "type": "function"
    },
    {
      "inputs": [],
      "payable": false,
      "stateMutability": "nonpayable",
      "type": "constructor"
    },
    {
      "constant": false,
      "inputs": [
        {
          "name": "_title",
          "type": "string"
        }
      ],
      "name": "createDiscussion",
      "outputs": [],
      "payable": false,
      "stateMutability": "nonpayable",
      "type": "function"
    },
    {
      "constant": true,
      "inputs": [],
      "name": "getDiscussionsCount",
      "outputs": [
        {
          "name": "",
          "type": "uint256"
        }
      ],
      "payable": false,
      "stateMutability": "view",
      "type": "function"
    },
    {
      "constant": true,
      "inputs": [
        {
          "name": "index",
          "type": "uint256"
        }
      ],
      "name": "getDiscussion",
      "outputs": [
        {
          "name": "startTime",
          "type": "uint256"
        },
        {
          "name": "author",
          "type": "address"
        },
        {
          "name": "title",
          "type": "string"
        },
        {
          "name": "isClosed",
          "type": "bool"
        }
      ],
      "payable": false,
      "stateMutability": "view",
      "type": "function"
    }
  ],
  "bytecode": "0x608060405234801561001057600080fd5b50610655806100206000396000f3006080604052600436106100615763ffffffff7c01000000000000000000000000000000000000000000000000000000006000350416630d7027dc81146100665780633a6ca23c1461013b5780635c16898b1461016257806392813fd614610177575b600080fd5b34801561007257600080fd5b5061007e6004356101d2565b604051808581526020018473ffffffffffffffffffffffffffffffffffffffff1673ffffffffffffffffffffffffffffffffffffffff1681526020018060200183151515158152602001828103825284818151815260200191508051906020019080838360005b838110156100fd5781810151838201526020016100e5565b50505050905090810190601f16801561012a5780820380516001836020036101000a031916815260200191505b509550505050505060405180910390f35b34801561014757600080fd5b50610150610342565b60408051918252519081900360200190f35b34801561016e57600080fd5b50610150610349565b34801561018357600080fd5b506040805160206004803580820135601f81018490048402850184019095528484526101d09436949293602493928401919081908401838280828437509497506104069650505050505050565b005b600080606060006101e1610569565b60008054879081106101ef57fe5b600091825260209182902060408051608081018252600393909302909101805473ffffffffffffffffffffffffffffffffffffffff8116845274010000000000000000000000000000000000000000900467ffffffffffffffff1683850152600180820180548451600261010094831615949094027fffffffffffffffffffffffffffffffffffffffffffffffffffffffffffffffff0190911692909204601f81018790048702830187018552808352949592949386019391929091908301828280156102fd5780601f106102d2576101008083540402835291602001916102fd565b820191906000526020600020905b8154815290600101906020018083116102e057829003601f168201915b50505091835250506002919091015460ff1615156020918201528101518151604083015160609093015167ffffffffffffffff90921699909850919650945092505050565b6000545b90565b60405160200180807f44495343555353494f4e5f4d414e414745525f524f4c4500000000000000000081525060170190506040516020818303038152906040526040518082805190602001908083835b602083106103d657805182527fffffffffffffffffffffffffffffffffffffffffffffffffffffffffffffffe09092019160209182019101610399565b6001836020036101000a038019825116818451168082178552505050505050905001915050604051809103902081565b6040805160808101825233815267ffffffffffffffff4281166020808401918252938301858152600060608501819052805460018101808355918052855160039091027f290decd9548b62a8d60345a988386fc84ba6bc95484008f6362f93160ef3e56381018054955190961674010000000000000000000000000000000000000000027fffffffff0000000000000000ffffffffffffffffffffffffffffffffffffffff73ffffffffffffffffffffffffffffffffffffffff939093167fffffffffffffffffffffffff0000000000000000000000000000000000000000909616959095179190911693909317845590518051919561052b937f290decd9548b62a8d60345a988386fc84ba6bc95484008f6362f93160ef3e5640192910190610591565b5060609190910151600290910180547fffffffffffffffffffffffffffffffffffffffffffffffffffffffffffffff00169115159190911790555050565b6040805160808101825260008082526020820181905260609282018390529181019190915290565b828054600181600116156101000203166002900490600052602060002090601f016020900481019282601f106105d257805160ff19168380011785556105ff565b828001600101855582156105ff579182015b828111156105ff5782518255916020019190600101906105e4565b5061060b92915061060f565b5090565b61034691905b8082111561060b57600081556001016106155600a165627a7a72305820766cc8e0a524f3e4d96220b5167b7395696c70c815e8a68004ff6088320e49690029",
  "source": "pragma solidity ^0.4.24;\n\n//import \"@aragon/os/contracts/apps/AragonApp.sol\";\n//import \"openzeppelin-solidity/contracts/math/Math.sol\";\n\n\ncontract DiscussionApp /*is AragonApp*/ {\n\n  bytes32 constant public DISCUSSION_MANAGER_ROLE = keccak256(abi.encodePacked(\"DISCUSSION_MANAGER_ROLE\"));\n\n  struct Discussion {\n    address author;\n    uint64 startTime;\n    string title;\n\n    //Message[] messages;\n\n    bool isClosed;\n\n  }\n\n  struct Message {\n    address author;\n  }\n\n\n  Discussion[] private discussions;\n\n\n  constructor() public {\n\n  }\n \n  function createDiscussion(string _title) \n    public \n    //auth(DISCUSSION_MANAGER_ROLE)\n  {\n    discussions.push(Discussion({\n      startTime: uint64(now),\n      author: msg.sender,\n      title: _title,\n      isClosed: false\n    }));\n  }\n  \n  function getDiscussionsCount() public view returns (uint256) {\n    return discussions.length;\n  }\n\n\n  function getDiscussion(uint256 index) public view returns (uint256 startTime, address author, string title, bool isClosed) {\n    Discussion memory disc = discussions[index];\n\n    startTime = disc.startTime;\n    author = disc.author;\n    title = disc.title;\n    isClosed = disc.isClosed;\n\n  }\n\n}\n",
  "sourcePath": "/home/mathew/workspace/datastore/communication-poc/app/frontend/contracts/DiscussionApp.sol",
  "compiler": {
    "name": "solc",
    "version": "0.4.24+commit.e67f0147.Emscripten.clang"
  },
  "schemaVersion": "2.0.0",
  "updatedAt": "2019-01-08T23:50:08.750Z"
}