{
  "contractName": "DiscussionApp",
  "abi": [
    {
      "constant": true,
      "inputs": [],
      "name": "DISCUSSION_MANAGER_ROLE",
      "outputs": [
        {
          "name": "",
          "type": "bytes32"
        }
      ],
      "payable": false,
      "stateMutability": "view",
      "type": "function"
    },
    {
      "inputs": [],
      "payable": false,
      "stateMutability": "nonpayable",
      "type": "constructor"
    },
    {
      "constant": false,
      "inputs": [
        {
          "name": "_title",
          "type": "string"
        }
      ],
      "name": "createDiscussion",
      "outputs": [],
      "payable": false,
      "stateMutability": "nonpayable",
      "type": "function"
    },
    {
      "constant": false,
      "inputs": [
        {
          "name": "_discussionId",
          "type": "uint256"
        }
      ],
      "name": "addMessage",
      "outputs": [],
      "payable": false,
      "stateMutability": "nonpayable",
      "type": "function"
    },
    {
      "constant": true,
      "inputs": [],
      "name": "getDiscussionsCount",
      "outputs": [
        {
          "name": "",
          "type": "uint256"
        }
      ],
      "payable": false,
      "stateMutability": "view",
      "type": "function"
    },
    {
      "constant": true,
      "inputs": [
        {
          "name": "index",
          "type": "uint256"
        }
      ],
      "name": "getDiscussion",
      "outputs": [
        {
          "name": "startTime",
          "type": "uint256"
        },
        {
          "name": "author",
          "type": "address"
        },
        {
          "name": "title",
          "type": "string"
        },
        {
          "name": "isOpened",
          "type": "bool"
        }
      ],
      "payable": false,
      "stateMutability": "view",
      "type": "function"
    }
  ],
  "bytecode": "0x608060405234801561001057600080fd5b50610777806100206000396000f30060806040526004361061006c5763ffffffff7c01000000000000000000000000000000000000000000000000000000006000350416630d7027dc81146100715780633a6ca23c146101465780635c16898b1461016d57806386c44efb1461018257806392813fd61461019c575b600080fd5b34801561007d57600080fd5b506100896004356101f5565b604051808581526020018473ffffffffffffffffffffffffffffffffffffffff1673ffffffffffffffffffffffffffffffffffffffff1681526020018060200183151515158152602001828103825284818151815260200191508051906020019080838360005b838110156101085781810151838201526020016100f0565b50505050905090810190601f1680156101355780820380516001836020036101000a031916815260200191505b509550505050505060405180910390f35b34801561015257600080fd5b5061015b610365565b60408051918252519081900360200190f35b34801561017957600080fd5b5061015b61036c565b34801561018e57600080fd5b5061019a600435610429565b005b3480156101a857600080fd5b506040805160206004803580820135601f810184900484028501840190955284845261019a9436949293602493928401919081908401838280828437509497506105259650505050505050565b6000806060600061020461068b565b600080548790811061021257fe5b600091825260209182902060408051608081018252600393909302909101805473ffffffffffffffffffffffffffffffffffffffff8116845274010000000000000000000000000000000000000000900467ffffffffffffffff1683850152600180820180548451600261010094831615949094027fffffffffffffffffffffffffffffffffffffffffffffffffffffffffffffffff0190911692909204601f81018790048702830187018552808352949592949386019391929091908301828280156103205780601f106102f557610100808354040283529160200191610320565b820191906000526020600020905b81548152906001019060200180831161030357829003601f168201915b50505091835250506002919091015460ff1615156020918201528101518151604083015160609093015167ffffffffffffffff90921699909850919650945092505050565b6000545b90565b60405160200180807f44495343555353494f4e5f4d414e414745525f524f4c4500000000000000000081525060170190506040516020818303038152906040526040518082805190602001908083835b602083106103f957805182527fffffffffffffffffffffffffffffffffffffffffffffffffffffffffffffffe090920191602091820191016103bc565b6001836020036101000a038019825116818451168082178552505050505050905001915050604051809103902081565b600080548290811061043757fe5b600091825260209091206002600390920201015460ff16151561045957600080fd5b6000908152600160208181526040808420815180830190925233825267ffffffffffffffff4281168385019081528254958601835591865292909420905192018054935190911674010000000000000000000000000000000000000000027fffffffff0000000000000000ffffffffffffffffffffffffffffffffffffffff73ffffffffffffffffffffffffffffffffffffffff939093167fffffffffffffffffffffffff00000000000000000000000000000000000000009094169390931791909116919091179055565b6040805160808101825233815267ffffffffffffffff428116602080840191825293830185815260016060850181905260008054918201808255908052855160039092027f290decd9548b62a8d60345a988386fc84ba6bc95484008f6362f93160ef3e56381018054955190961674010000000000000000000000000000000000000000027fffffffff0000000000000000ffffffffffffffffffffffffffffffffffffffff73ffffffffffffffffffffffffffffffffffffffff949094167fffffffffffffffffffffffff0000000000000000000000000000000000000000909616959095179290921693909317845590518051929561064d937f290decd9548b62a8d60345a988386fc84ba6bc95484008f6362f93160ef3e564909301929101906106b3565b5060609190910151600290910180547fffffffffffffffffffffffffffffffffffffffffffffffffffffffffffffff00169115159190911790555050565b6040805160808101825260008082526020820181905260609282018390529181019190915290565b828054600181600116156101000203166002900490600052602060002090601f016020900481019282601f106106f457805160ff1916838001178555610721565b82800160010185558215610721579182015b82811115610721578251825591602001919060010190610706565b5061072d929150610731565b5090565b61036991905b8082111561072d57600081556001016107375600a165627a7a7230582029c7045a5ba87c959aafda8c18d2c85029bcca5a08b02f273f6889bdfe1752df0029",
  "source": "pragma solidity ^0.4.24;\n\n//import \"@aragon/os/contracts/apps/AragonApp.sol\";\n//import \"openzeppelin-solidity/contracts/math/Math.sol\";\n\n\ncontract DiscussionApp /*is AragonApp*/ {\n\n  bytes32 constant public DISCUSSION_MANAGER_ROLE = keccak256(abi.encodePacked(\"DISCUSSION_MANAGER_ROLE\"));\n\n  struct Discussion {\n    address author;\n    uint64 startTime;\n    string title;\n\n    bool isOpened;\n\n  }\n\n  struct Message {\n    address author;\n    uint64 timestamp;\n  }\n\n\n  Discussion[] private discussions;\n  mapping ( uint256 => Message[] ) messages; // discussionId => Message\n\n\n  constructor() public {\n\n  }\n \n  function createDiscussion(string _title) \n    public \n    //auth(DISCUSSION_MANAGER_ROLE)\n  {\n    discussions.push(Discussion({\n      startTime: uint64(now),\n      author: msg.sender,\n      title: _title,\n      isOpened: true\n    }));\n\n  }\n\n\n  function addMessage(uint256 _discussionId) \n    public\n  {\n    require(discussions[_discussionId].isOpened);\n\n    messages[_discussionId].push(Message({\n      author: msg.sender,\n      timestamp: uint64(now)\n    }));\n  }\n\n  \n  function getDiscussionsCount() public view returns (uint256) {\n    return discussions.length;\n  }\n\n\n  function getDiscussion(uint256 index) public view returns (uint256 startTime, address author, string title, bool isOpened) {\n    Discussion memory disc = discussions[index];\n\n    startTime = disc.startTime;\n    author = disc.author;\n    title = disc.title;\n    isOpened = disc.isOpened;\n\n  }\n\n}\n",
  "sourcePath": "/home/mathew/workspace/datastore/communication-poc/app/frontend/contracts/DiscussionApp.sol",
  "compiler": {
    "name": "solc",
    "version": "0.4.24+commit.e67f0147.Emscripten.clang"
  },
  "schemaVersion": "2.0.0",
  "updatedAt": "2019-01-09T04:52:53.173Z"
}